{
  "_format": "hh-sol-artifact-1",
  "contractName": "SwapBatcher",
  "sourceName": "contracts/SwapBatcher.sol",
  "abi": [
    {
      "inputs": [
        {
          "internalType": "address",
          "name": "_ammRouter",
          "type": "address"
        }
      ],
      "stateMutability": "nonpayable",
      "type": "constructor"
    },
    {
      "anonymous": false,
      "inputs": [
        {
          "indexed": false,
          "internalType": "uint256",
          "name": "totalOrders",
          "type": "uint256"
        }
      ],
      "name": "BatchExecuted",
      "type": "event"
    },
    {
      "anonymous": false,
      "inputs": [
        {
          "indexed": true,
          "internalType": "uint256",
          "name": "orderId",
          "type": "uint256"
        },
        {
          "indexed": true,
          "internalType": "address",
          "name": "user",
          "type": "address"
        }
      ],
      "name": "OrderQueued",
      "type": "event"
    },
    {
      "inputs": [],
      "name": "executeBatch",
      "outputs": [],
      "stateMutability": "nonpayable",
      "type": "function"
    },
    {
      "inputs": [],
      "name": "owner",
      "outputs": [
        {
          "internalType": "address",
          "name": "",
          "type": "address"
        }
      ],
      "stateMutability": "view",
      "type": "function"
    },
    {
      "inputs": [
        {
          "internalType": "uint256",
          "name": "",
          "type": "uint256"
        }
      ],
      "name": "queue",
      "outputs": [
        {
          "internalType": "address",
          "name": "user",
          "type": "address"
        },
        {
          "internalType": "uint256",
          "name": "amountIn",
          "type": "uint256"
        },
        {
          "internalType": "uint256",
          "name": "amountMinOut",
          "type": "uint256"
        },
        {
          "internalType": "uint256",
          "name": "deadline",
          "type": "uint256"
        },
        {
          "internalType": "address",
          "name": "to",
          "type": "address"
        }
      ],
      "stateMutability": "view",
      "type": "function"
    },
    {
      "inputs": [
        {
          "internalType": "uint256",
          "name": "amountIn",
          "type": "uint256"
        },
        {
          "internalType": "uint256",
          "name": "amountMinOut",
          "type": "uint256"
        },
        {
          "internalType": "address[]",
          "name": "path",
          "type": "address[]"
        },
        {
          "internalType": "uint256",
          "name": "deadline",
          "type": "uint256"
        }
      ],
      "name": "queueOrder",
      "outputs": [],
      "stateMutability": "nonpayable",
      "type": "function"
    },
    {
      "inputs": [],
      "name": "router",
      "outputs": [
        {
          "internalType": "contract SwapRouter",
          "name": "",
          "type": "address"
        }
      ],
      "stateMutability": "view",
      "type": "function"
    }
  ],
  "bytecode": "0x60a060405234801561001057600080fd5b50604051610b07380380610b0783398101604081905261002f91610052565b6001600160a01b0316608052600080546001600160a01b03191633179055610082565b60006020828403121561006457600080fd5b81516001600160a01b038116811461007b57600080fd5b9392505050565b608051610a5d6100aa6000396000818160f5015281816104ec01526105b00152610a5d6000f3fe608060405234801561001057600080fd5b50600436106100575760003560e01c80638c46fee01461005c5780638da5cb5b14610071578063ddf0b009146100a1578063f85d107c146100e8578063f887ea40146100f0575b600080fd5b61006f61006a366004610798565b610117565b005b600054610084906001600160a01b031681565b6040516001600160a01b0390911681526020015b60405180910390f35b6100b46100af366004610823565b6102fb565b604080516001600160a01b03968716815260208101959095528401929092526060830152909116608082015260a001610098565b61006f610349565b6100847f000000000000000000000000000000000000000000000000000000000000000081565b8282600081811061012a5761012a61083c565b905060200201602081019061013f9190610852565b6040516323b872dd60e01b8152336004820152306024820152604481018790526001600160a01b0391909116906323b872dd906064016020604051808303816000875af1158015610194573d6000803e3d6000fd5b505050506040513d601f19601f820116820180604052508101906101b89190610882565b5060016040518060c00160405280336001600160a01b03168152602001878152602001868152602001858580806020026020016040519081016040528093929190818152602001838360200280828437600092018290525093855250505060208083018690523360409384015284546001808201875595835291819020845160069093020180546001600160a01b0319166001600160a01b03909316929092178255838101519482019490945590820151600282015560608201518051929391926102899260038501920190610687565b506080820151600482015560a090910151600590910180546001600160a01b0319166001600160a01b039092169190911790556001805433916102cb916108ba565b6040517f6f5cf7151b3feeccbc0fc38018a3e958e0ee0aabd5728f8dd68e926308b2864a90600090a35050505050565b6001818154811061030b57600080fd5b6000918252602090912060069091020180546001820154600283015460048401546005909401546001600160a01b0393841695509193909290911685565b6000546001600160a01b031633146103955760405162461bcd60e51b815260206004820152600a602482015269102737ba1027bbb732b960b11b60448201526064015b60405180910390fd5b600154806103db5760405162461bcd60e51b81526020600482015260136024820152724e6f206f7264657220746f206578656375746560681b604482015260640161038c565b60005b81811015610644576000600182815481106103fb576103fb61083c565b60009182526020918290206040805160c081018252600690930290910180546001600160a01b031683526001810154838501526002810154838301526003810180548351818702810187019094528084529394919360608601939283018282801561048f57602002820191906000526020600020905b81546001600160a01b03168152600190910190602001808311610471575b5050509183525050600482015460208201526005909101546001600160a01b03166040909101526060810151805191925060009182906104d1576104d161083c565b60200260200101519050806001600160a01b031663095ea7b37f000000000000000000000000000000000000000000000000000000000000000084602001516040518363ffffffff1660e01b81526004016105419291906001600160a01b03929092168252602082015260400190565b6020604051808303816000875af1158015610560573d6000803e3d6000fd5b505050506040513d601f19601f820116820180604052508101906105849190610882565b506020820151604080840151606085015160808601519251631f263f5960e01b81526001600160a01b037f00000000000000000000000000000000000000000000000000000000000000001694631f263f59946105e794919391926004016108d3565b6000604051808303816000875af1158015610606573d6000803e3d6000fd5b505050506040513d6000823e601f3d908101601f1916820160405261062e9190810190610950565b505050808061063c90610a0e565b9150506103de565b50610651600160006106ec565b6040518181527fe9cc9bbe7de1cbb097a6357ca3182909488efe8d793e25665befc064a02d10a79060200160405180910390a150565b8280548282559060005260206000209081019282156106dc579160200282015b828111156106dc57825182546001600160a01b0319166001600160a01b039091161782556020909201916001909101906106a7565b506106e8929150610710565b5090565b508054600082556006029060005260206000209081019061070d9190610725565b50565b5b808211156106e85760008155600101610711565b808211156106e85780546001600160a01b031916815560006001820181905560028201819055610758600383018261077a565b50600060048201556005810180546001600160a01b0319169055600601610725565b508054600082559060005260206000209081019061070d9190610710565b6000806000806000608086880312156107b057600080fd5b8535945060208601359350604086013567ffffffffffffffff808211156107d657600080fd5b818801915088601f8301126107ea57600080fd5b8135818111156107f957600080fd5b8960208260051b850101111561080e57600080fd5b96999598505060200195606001359392505050565b60006020828403121561083557600080fd5b5035919050565b634e487b7160e01b600052603260045260246000fd5b60006020828403121561086457600080fd5b81356001600160a01b038116811461087b57600080fd5b9392505050565b60006020828403121561089457600080fd5b8151801515811461087b57600080fd5b634e487b7160e01b600052601160045260246000fd5b818103818111156108cd576108cd6108a4565b92915050565b600060808201868352602086818501526080604085015281865180845260a086019150828801935060005b818110156109235784516001600160a01b0316835293830193918301916001016108fe565b505080935050505082606083015295945050505050565b634e487b7160e01b600052604160045260246000fd5b6000602080838503121561096357600080fd5b825167ffffffffffffffff8082111561097b57600080fd5b818501915085601f83011261098f57600080fd5b8151818111156109a1576109a161093a565b8060051b604051601f19603f830116810181811085821117156109c6576109c661093a565b6040529182528482019250838101850191888311156109e457600080fd5b938501935b82851015610a02578451845293850193928501926109e9565b98975050505050505050565b600060018201610a2057610a206108a4565b506001019056fea2646970667358221220996102fefce2527ba563a5d2db72a2f5da85e9b6e15c0d4e4e143be8a46174aa64736f6c63430008110033",
  "linkReferences": {},
  "deployedLinkReferences": {}
}