{
  "_format": "hh-sol-artifact-1",
  "contractName": "SwapBatcher",
  "sourceName": "contracts/SwapBatcher.sol",
  "abi": [
    {
      "inputs": [
        {
          "internalType": "address",
          "name": "_swapRouter",
          "type": "address"
        },
        {
          "internalType": "address",
          "name": "_gelatoProxy",
          "type": "address"
        }
      ],
      "stateMutability": "nonpayable",
      "type": "constructor"
    },
    {
      "anonymous": false,
      "inputs": [
        {
          "indexed": false,
          "internalType": "uint256",
          "name": "totalOrders",
          "type": "uint256"
        }
      ],
      "name": "BatchExecuted",
      "type": "event"
    },
    {
      "anonymous": false,
      "inputs": [
        {
          "indexed": true,
          "internalType": "uint256",
          "name": "orderId",
          "type": "uint256"
        },
        {
          "indexed": true,
          "internalType": "address",
          "name": "user",
          "type": "address"
        }
      ],
      "name": "OrderQueued",
      "type": "event"
    },
    {
      "inputs": [],
      "name": "executeBatch",
      "outputs": [],
      "stateMutability": "nonpayable",
      "type": "function"
    },
    {
      "inputs": [],
      "name": "gelatoProxy",
      "outputs": [
        {
          "internalType": "address",
          "name": "",
          "type": "address"
        }
      ],
      "stateMutability": "view",
      "type": "function"
    },
    {
      "inputs": [],
      "name": "getQueueLength",
      "outputs": [
        {
          "internalType": "uint256",
          "name": "",
          "type": "uint256"
        }
      ],
      "stateMutability": "view",
      "type": "function"
    },
    {
      "inputs": [],
      "name": "owner",
      "outputs": [
        {
          "internalType": "address",
          "name": "",
          "type": "address"
        }
      ],
      "stateMutability": "view",
      "type": "function"
    },
    {
      "inputs": [
        {
          "internalType": "uint256",
          "name": "",
          "type": "uint256"
        }
      ],
      "name": "queue",
      "outputs": [
        {
          "internalType": "address",
          "name": "user",
          "type": "address"
        },
        {
          "internalType": "uint256",
          "name": "amountIn",
          "type": "uint256"
        },
        {
          "internalType": "uint256",
          "name": "amountMinOut",
          "type": "uint256"
        },
        {
          "internalType": "uint256",
          "name": "deadline",
          "type": "uint256"
        },
        {
          "internalType": "address",
          "name": "to",
          "type": "address"
        }
      ],
      "stateMutability": "view",
      "type": "function"
    },
    {
      "inputs": [
        {
          "internalType": "uint256",
          "name": "amountIn",
          "type": "uint256"
        },
        {
          "internalType": "uint256",
          "name": "amountMinOut",
          "type": "uint256"
        },
        {
          "internalType": "address[]",
          "name": "path",
          "type": "address[]"
        },
        {
          "internalType": "uint256",
          "name": "deadline",
          "type": "uint256"
        }
      ],
      "name": "queueOrder",
      "outputs": [],
      "stateMutability": "nonpayable",
      "type": "function"
    },
    {
      "inputs": [],
      "name": "router",
      "outputs": [
        {
          "internalType": "contract SwapRouter",
          "name": "",
          "type": "address"
        }
      ],
      "stateMutability": "view",
      "type": "function"
    }
  ],
  "bytecode": "0x60c060405234801561001057600080fd5b50604051610fde380380610fde83398101604081905261002f91610074565b6001600160a01b039182166080521660a052600080546001600160a01b031916331790556100a7565b80516001600160a01b038116811461006f57600080fd5b919050565b6000806040838503121561008757600080fd5b61009083610058565b915061009e60208401610058565b90509250929050565b60805160a051610efe6100e0600039600081816087015261034f0152600081816101530152818161054501526105860152610efe6000f3fe608060405234801561001057600080fd5b506004361061007d5760003560e01c8063b8f770051161005b578063b8f77005146100ee578063ddf0b009146100ff578063f85d107c14610146578063f887ea401461014e57600080fd5b80637348b215146100825780638c46fee0146100c65780638da5cb5b146100db575b600080fd5b6100a97f000000000000000000000000000000000000000000000000000000000000000081565b6040516001600160a01b0390911681526020015b60405180910390f35b6100d96100d4366004610b9a565b610175565b005b6000546100a9906001600160a01b031681565b6001546040519081526020016100bd565b61011261010d366004610c25565b6102f6565b604080516001600160a01b03968716815260208101959095528401929092526060830152909116608082015260a0016100bd565b6100d9610344565b6100a97f000000000000000000000000000000000000000000000000000000000000000081565b6101b43330878686600081811061018e5761018e610c3e565b90506020020160208101906101a39190610c54565b6001600160a01b03169291906106d1565b60016040518060c00160405280336001600160a01b03168152602001878152602001868152602001858580806020026020016040519081016040528093929190818152602001838360200280828437600092018290525093855250505060208083018690523360409384015284546001808201875595835291819020845160069093020180546001600160a01b0319166001600160a01b03909316929092178255838101519482019490945590820151600282015560608201518051929391926102849260038501920190610a89565b506080820151600482015560a090910151600590910180546001600160a01b0319166001600160a01b039092169190911790556001805433916102c691610c9a565b6040517f6f5cf7151b3feeccbc0fc38018a3e958e0ee0aabd5728f8dd68e926308b2864a90600090a35050505050565b6001818154811061030657600080fd5b6000918252602090912060069091020180546001820154600283015460048401546005909401546001600160a01b0393841695509193909290911685565b336001600160a01b037f000000000000000000000000000000000000000000000000000000000000000016148061038557506000546001600160a01b031633145b6103c75760405162461bcd60e51b815260206004820152600e60248201526d139bdd08185d5d1a1bdc9a5e995960921b60448201526064015b60405180910390fd5b6001548061040d5760405162461bcd60e51b81526020600482015260136024820152724e6f206f7264657220746f206578656375746560681b60448201526064016103be565b60005b8181101561068e5760006001828154811061042d5761042d610c3e565b60009182526020918290206040805160c081018252600690930290910180546001600160a01b03168352600181015483850152600281015483830152600381018054835181870281018701909452808452939491936060860193928301828280156104c157602002820191906000526020600020905b81546001600160a01b031681526001909101906020018083116104a3575b5050509183525050600482015460208201526005909101546001600160a01b031660409091015260608101518051919250600091829061050357610503610c3e565b602002602001015190506000826060015160018460600151516105269190610c9a565b8151811061053657610536610c3e565b602002602001015190506105827f00000000000000000000000000000000000000000000000000000000000000008460200151846001600160a01b03166107429092919063ffffffff16565b60007f00000000000000000000000000000000000000000000000000000000000000006001600160a01b0316631f263f5985602001518660400151876060015188608001516040518563ffffffff1660e01b81526004016105e69493929190610cb3565b6000604051808303816000875af1158015610605573d6000803e3d6000fd5b505050506040513d6000823e601f3d908101601f1916820160405261062d9190810190610d30565b90506106778460a0015182600184516106469190610c9a565b8151811061065657610656610c3e565b6020026020010151846001600160a01b03166107ef9092919063ffffffff16565b50505050808061068690610dee565b915050610410565b5061069b60016000610aee565b6040518181527fe9cc9bbe7de1cbb097a6357ca3182909488efe8d793e25665befc064a02d10a79060200160405180910390a150565b6040516001600160a01b038085166024830152831660448201526064810182905261073c9085906323b872dd60e01b906084015b60408051601f198184030181529190526020810180516001600160e01b03166001600160e01b031990931692909217909152610824565b50505050565b604051636eb1769f60e11b81523060048201526001600160a01b0383811660248301526000919085169063dd62ed3e90604401602060405180830381865afa158015610792573d6000803e3d6000fd5b505050506040513d601f19601f820116820180604052508101906107b69190610e07565b905061073c8463095ea7b360e01b856107cf8686610e20565b6040516001600160a01b0390921660248301526044820152606401610705565b6040516001600160a01b03831660248201526044810182905261081f90849063a9059cbb60e01b90606401610705565b505050565b6000610879826040518060400160405280602081526020017f5361666545524332303a206c6f772d6c6576656c2063616c6c206661696c6564815250856001600160a01b03166108f99092919063ffffffff16565b905080516000148061089a57508080602001905181019061089a9190610e33565b61081f5760405162461bcd60e51b815260206004820152602a60248201527f5361666545524332303a204552433230206f7065726174696f6e20646964206e6044820152691bdd081cdd58d8d9595960b21b60648201526084016103be565b60606109088484600085610910565b949350505050565b6060824710156109715760405162461bcd60e51b815260206004820152602660248201527f416464726573733a20696e73756666696369656e742062616c616e636520666f6044820152651c8818d85b1b60d21b60648201526084016103be565b600080866001600160a01b0316858760405161098d9190610e79565b60006040518083038185875af1925050503d80600081146109ca576040519150601f19603f3d011682016040523d82523d6000602084013e6109cf565b606091505b50915091506109e0878383876109eb565b979650505050505050565b60608315610a5a578251600003610a53576001600160a01b0385163b610a535760405162461bcd60e51b815260206004820152601d60248201527f416464726573733a2063616c6c20746f206e6f6e2d636f6e747261637400000060448201526064016103be565b5081610908565b6109088383815115610a6f5781518083602001fd5b8060405162461bcd60e51b81526004016103be9190610e95565b828054828255906000526020600020908101928215610ade579160200282015b82811115610ade57825182546001600160a01b0319166001600160a01b03909116178255602090920191600190910190610aa9565b50610aea929150610b12565b5090565b5080546000825560060290600052602060002090810190610b0f9190610b27565b50565b5b80821115610aea5760008155600101610b13565b80821115610aea5780546001600160a01b031916815560006001820181905560028201819055610b5a6003830182610b7c565b50600060048201556005810180546001600160a01b0319169055600601610b27565b5080546000825590600052602060002090810190610b0f9190610b12565b600080600080600060808688031215610bb257600080fd5b8535945060208601359350604086013567ffffffffffffffff80821115610bd857600080fd5b818801915088601f830112610bec57600080fd5b813581811115610bfb57600080fd5b8960208260051b8501011115610c1057600080fd5b96999598505060200195606001359392505050565b600060208284031215610c3757600080fd5b5035919050565b634e487b7160e01b600052603260045260246000fd5b600060208284031215610c6657600080fd5b81356001600160a01b0381168114610c7d57600080fd5b9392505050565b634e487b7160e01b600052601160045260246000fd5b81810381811115610cad57610cad610c84565b92915050565b600060808201868352602086818501526080604085015281865180845260a086019150828801935060005b81811015610d035784516001600160a01b031683529383019391830191600101610cde565b505080935050505082606083015295945050505050565b634e487b7160e01b600052604160045260246000fd5b60006020808385031215610d4357600080fd5b825167ffffffffffffffff80821115610d5b57600080fd5b818501915085601f830112610d6f57600080fd5b815181811115610d8157610d81610d1a565b8060051b604051601f19603f83011681018181108582111715610da657610da6610d1a565b604052918252848201925083810185019188831115610dc457600080fd5b938501935b82851015610de257845184529385019392850192610dc9565b98975050505050505050565b600060018201610e0057610e00610c84565b5060010190565b600060208284031215610e1957600080fd5b5051919050565b80820180821115610cad57610cad610c84565b600060208284031215610e4557600080fd5b81518015158114610c7d57600080fd5b60005b83811015610e70578181015183820152602001610e58565b50506000910152565b60008251610e8b818460208701610e55565b9190910192915050565b6020815260008251806020840152610eb4816040850160208701610e55565b601f01601f1916919091016040019291505056fea2646970667358221220e3778a816ff8a31a30d8ca45ddd78f730fab80f33f8253c960dad9bf74d853a064736f6c63430008110033",
  "linkReferences": {},
  "deployedLinkReferences": {}
}