{
  "_format": "hh-sol-artifact-1",
  "contractName": "SwapBatcher",
  "sourceName": "contracts/SwapBatcher.sol",
  "abi": [
    {
      "inputs": [
        {
          "internalType": "address",
          "name": "_ammRouter",
          "type": "address"
        }
      ],
      "stateMutability": "nonpayable",
      "type": "constructor"
    },
    {
      "anonymous": false,
      "inputs": [
        {
          "indexed": false,
          "internalType": "uint256",
          "name": "totalOrders",
          "type": "uint256"
        }
      ],
      "name": "BatchExecuted",
      "type": "event"
    },
    {
      "anonymous": false,
      "inputs": [
        {
          "indexed": true,
          "internalType": "uint256",
          "name": "orderId",
          "type": "uint256"
        },
        {
          "indexed": true,
          "internalType": "address",
          "name": "user",
          "type": "address"
        }
      ],
      "name": "OrderQueued",
      "type": "event"
    },
    {
      "inputs": [],
      "name": "executeBatch",
      "outputs": [],
      "stateMutability": "nonpayable",
      "type": "function"
    },
    {
      "inputs": [],
      "name": "owner",
      "outputs": [
        {
          "internalType": "address",
          "name": "",
          "type": "address"
        }
      ],
      "stateMutability": "view",
      "type": "function"
    },
    {
      "inputs": [
        {
          "internalType": "uint256",
          "name": "",
          "type": "uint256"
        }
      ],
      "name": "queue",
      "outputs": [
        {
          "internalType": "address",
          "name": "user",
          "type": "address"
        },
        {
          "internalType": "address",
          "name": "to",
          "type": "address"
        },
        {
          "internalType": "uint256",
          "name": "amountIn",
          "type": "uint256"
        },
        {
          "internalType": "uint256",
          "name": "amountMinOut",
          "type": "uint256"
        },
        {
          "internalType": "uint256",
          "name": "deadline",
          "type": "uint256"
        }
      ],
      "stateMutability": "view",
      "type": "function"
    },
    {
      "inputs": [
        {
          "internalType": "uint256",
          "name": "amountIn",
          "type": "uint256"
        },
        {
          "internalType": "uint256",
          "name": "amountMinOut",
          "type": "uint256"
        },
        {
          "internalType": "address[]",
          "name": "path",
          "type": "address[]"
        },
        {
          "internalType": "uint256",
          "name": "deadline",
          "type": "uint256"
        }
      ],
      "name": "queueOrder",
      "outputs": [],
      "stateMutability": "nonpayable",
      "type": "function"
    },
    {
      "inputs": [],
      "name": "router",
      "outputs": [
        {
          "internalType": "contract SwapRouter",
          "name": "",
          "type": "address"
        }
      ],
      "stateMutability": "view",
      "type": "function"
    }
  ],
  "bytecode": "0x60a060405234801561001057600080fd5b50604051610aef380380610aef83398101604081905261002f91610052565b6001600160a01b0316608052600080546001600160a01b03191633179055610082565b60006020828403121561006457600080fd5b81516001600160a01b038116811461007b57600080fd5b9392505050565b608051610a456100aa6000396000818160f4015281816104d901526105740152610a456000f3fe608060405234801561001057600080fd5b50600436106100575760003560e01c80638c46fee01461005c5780638da5cb5b14610071578063ddf0b009146100a1578063f85d107c146100e7578063f887ea40146100ef575b600080fd5b61006f61006a366004610780565b610116565b005b600054610084906001600160a01b031681565b6040516001600160a01b0390911681526020015b60405180910390f35b6100b46100af36600461080b565b6102f0565b604080516001600160a01b039687168152959094166020860152928401919091526060830152608082015260a001610098565b61006f61033d565b6100847f000000000000000000000000000000000000000000000000000000000000000081565b8282600081811061012957610129610824565b905060200201602081019061013e919061083a565b6040516323b872dd60e01b8152336004820152306024820152604481018790526001600160a01b0391909116906323b872dd906064016020604051808303816000875af1158015610193573d6000803e3d6000fd5b505050506040513d601f19601f820116820180604052508101906101b7919061086a565b5060016040518060c00160405280336001600160a01b03168152602001336001600160a01b031681526020018781526020018681526020018585808060200260200160405190810160405280939291908181526020018383602002808284376000920182905250938552505050602091820185905283546001818101865594825290829020835160069092020180546001600160a01b039283166001600160a01b03199182161782558484015195820180549690931695169490941790556040820151600284015560608201516003840155608082015180519293926102a39260048501920190610674565b5060a091909101516005909101556001805433916102c0916108a2565b6040517f6f5cf7151b3feeccbc0fc38018a3e958e0ee0aabd5728f8dd68e926308b2864a90600090a35050505050565b6001818154811061030057600080fd5b6000918252602090912060069091020180546001820154600283015460038401546005909401546001600160a01b03938416955091909216929085565b6000546001600160a01b031633146103895760405162461bcd60e51b815260206004820152600a602482015269102737ba1027bbb732b960b11b60448201526064015b60405180910390fd5b600154806103cf5760405162461bcd60e51b81526020600482015260136024820152724e6f206f7264657220746f206578656375746560681b6044820152606401610380565b60005b81811015610631576000600182815481106103ef576103ef610824565b60009182526020918290206040805160c081018252600690930290910180546001600160a01b03908116845260018201541683850152600281015483830152600381015460608401526004810180548351818702810187019094528084529394919360808601939283018282801561049057602002820191906000526020600020905b81546001600160a01b03168152600190910190602001808311610472575b505050505081526020016005820154815250509050600081608001516000815181106104be576104be610824565b60200260200101519050806001600160a01b031663095ea7b37f000000000000000000000000000000000000000000000000000000000000000084604001516040518363ffffffff1660e01b815260040161052e9291906001600160a01b03929092168252602082015260400190565b6020604051808303816000875af115801561054d573d6000803e3d6000fd5b505050506040513d601f19601f82011682018060405250810190610571919061086a565b507f00000000000000000000000000000000000000000000000000000000000000006001600160a01b0316631f263f598360400151846060015185608001518660a001516040518563ffffffff1660e01b81526004016105d494939291906108bb565b6000604051808303816000875af11580156105f3573d6000803e3d6000fd5b505050506040513d6000823e601f3d908101601f1916820160405261061b9190810190610938565b5050508080610629906109f6565b9150506103d2565b5061063e600160006106d9565b6040518181527fe9cc9bbe7de1cbb097a6357ca3182909488efe8d793e25665befc064a02d10a79060200160405180910390a150565b8280548282559060005260206000209081019282156106c9579160200282015b828111156106c957825182546001600160a01b0319166001600160a01b03909116178255602090920191600190910190610694565b506106d59291506106fd565b5090565b50805460008255600602906000526020600020908101906106fa9190610712565b50565b5b808211156106d557600081556001016106fe565b808211156106d55780546001600160a01b031990811682556001820180549091169055600060028201819055600382018190556107526004830182610762565b5060006005820155600601610712565b50805460008255906000526020600020908101906106fa91906106fd565b60008060008060006080868803121561079857600080fd5b8535945060208601359350604086013567ffffffffffffffff808211156107be57600080fd5b818801915088601f8301126107d257600080fd5b8135818111156107e157600080fd5b8960208260051b85010111156107f657600080fd5b96999598505060200195606001359392505050565b60006020828403121561081d57600080fd5b5035919050565b634e487b7160e01b600052603260045260246000fd5b60006020828403121561084c57600080fd5b81356001600160a01b038116811461086357600080fd5b9392505050565b60006020828403121561087c57600080fd5b8151801515811461086357600080fd5b634e487b7160e01b600052601160045260246000fd5b818103818111156108b5576108b561088c565b92915050565b600060808201868352602086818501526080604085015281865180845260a086019150828801935060005b8181101561090b5784516001600160a01b0316835293830193918301916001016108e6565b505080935050505082606083015295945050505050565b634e487b7160e01b600052604160045260246000fd5b6000602080838503121561094b57600080fd5b825167ffffffffffffffff8082111561096357600080fd5b818501915085601f83011261097757600080fd5b81518181111561098957610989610922565b8060051b604051601f19603f830116810181811085821117156109ae576109ae610922565b6040529182528482019250838101850191888311156109cc57600080fd5b938501935b828510156109ea578451845293850193928501926109d1565b98975050505050505050565b600060018201610a0857610a0861088c565b506001019056fea264697066735822122011a980faff03d767945ddccc47b11833f2871a24ffe2b25967f30648dacd3a4f64736f6c63430008110033",
  "linkReferences": {},
  "deployedLinkReferences": {}
}