{
  "_format": "hh-sol-artifact-1",
  "contractName": "SwapBatcher",
  "sourceName": "contracts/SwapBatcher.sol",
  "abi": [
    {
      "inputs": [
        {
          "internalType": "address",
          "name": "_swapRouter",
          "type": "address"
        }
      ],
      "stateMutability": "nonpayable",
      "type": "constructor"
    },
    {
      "anonymous": false,
      "inputs": [
        {
          "indexed": false,
          "internalType": "uint256",
          "name": "totalOrders",
          "type": "uint256"
        }
      ],
      "name": "BatchExecuted",
      "type": "event"
    },
    {
      "anonymous": false,
      "inputs": [
        {
          "indexed": true,
          "internalType": "uint256",
          "name": "orderId",
          "type": "uint256"
        },
        {
          "indexed": true,
          "internalType": "address",
          "name": "user",
          "type": "address"
        }
      ],
      "name": "OrderQueued",
      "type": "event"
    },
    {
      "inputs": [],
      "name": "executeBatch",
      "outputs": [],
      "stateMutability": "nonpayable",
      "type": "function"
    },
    {
      "inputs": [],
      "name": "getQueueLength",
      "outputs": [
        {
          "internalType": "uint256",
          "name": "",
          "type": "uint256"
        }
      ],
      "stateMutability": "view",
      "type": "function"
    },
    {
      "inputs": [],
      "name": "owner",
      "outputs": [
        {
          "internalType": "address",
          "name": "",
          "type": "address"
        }
      ],
      "stateMutability": "view",
      "type": "function"
    },
    {
      "inputs": [
        {
          "internalType": "uint256",
          "name": "",
          "type": "uint256"
        }
      ],
      "name": "queue",
      "outputs": [
        {
          "internalType": "address",
          "name": "user",
          "type": "address"
        },
        {
          "internalType": "uint256",
          "name": "amountIn",
          "type": "uint256"
        },
        {
          "internalType": "uint256",
          "name": "amountMinOut",
          "type": "uint256"
        },
        {
          "internalType": "uint256",
          "name": "deadline",
          "type": "uint256"
        },
        {
          "internalType": "address",
          "name": "to",
          "type": "address"
        }
      ],
      "stateMutability": "view",
      "type": "function"
    },
    {
      "inputs": [
        {
          "internalType": "uint256",
          "name": "amountIn",
          "type": "uint256"
        },
        {
          "internalType": "uint256",
          "name": "amountMinOut",
          "type": "uint256"
        },
        {
          "internalType": "address[]",
          "name": "path",
          "type": "address[]"
        },
        {
          "internalType": "uint256",
          "name": "deadline",
          "type": "uint256"
        }
      ],
      "name": "queueOrder",
      "outputs": [],
      "stateMutability": "nonpayable",
      "type": "function"
    },
    {
      "inputs": [],
      "name": "router",
      "outputs": [
        {
          "internalType": "contract SwapRouter",
          "name": "",
          "type": "address"
        }
      ],
      "stateMutability": "view",
      "type": "function"
    }
  ],
  "bytecode": "0x60a060405234801561001057600080fd5b50604051610f35380380610f3583398101604081905261002f91610052565b6001600160a01b0316608052600080546001600160a01b03191633179055610082565b60006020828403121561006457600080fd5b81516001600160a01b038116811461007b57600080fd5b9392505050565b608051610e8a6100ab60003960008181610111015281816104cb015261050c0152610e8a6000f3fe608060405234801561001057600080fd5b50600436106100625760003560e01c80638c46fee0146100675780638da5cb5b1461007c578063b8f77005146100ac578063ddf0b009146100bd578063f85d107c14610104578063f887ea401461010c575b600080fd5b61007a610075366004610b26565b610133565b005b60005461008f906001600160a01b031681565b6040516001600160a01b0390911681526020015b60405180910390f35b6001546040519081526020016100a3565b6100d06100cb366004610bb1565b6102b4565b604080516001600160a01b03968716815260208101959095528401929092526060830152909116608082015260a0016100a3565b61007a610302565b61008f7f000000000000000000000000000000000000000000000000000000000000000081565b6101723330878686600081811061014c5761014c610bca565b90506020020160208101906101619190610be0565b6001600160a01b031692919061065d565b60016040518060c00160405280336001600160a01b03168152602001878152602001868152602001858580806020026020016040519081016040528093929190818152602001838360200280828437600092018290525093855250505060208083018690523360409384015284546001808201875595835291819020845160069093020180546001600160a01b0319166001600160a01b03909316929092178255838101519482019490945590820151600282015560608201518051929391926102429260038501920190610a15565b506080820151600482015560a090910151600590910180546001600160a01b0319166001600160a01b0390921691909117905560018054339161028491610c26565b6040517f6f5cf7151b3feeccbc0fc38018a3e958e0ee0aabd5728f8dd68e926308b2864a90600090a35050505050565b600181815481106102c457600080fd5b6000918252602090912060069091020180546001820154600283015460048401546005909401546001600160a01b0393841695509193909290911685565b6000546001600160a01b0316331461034d5760405162461bcd60e51b81526020600482015260096024820152682737ba1027bbb732b960b91b60448201526064015b60405180910390fd5b600154806103935760405162461bcd60e51b81526020600482015260136024820152724e6f206f7264657220746f206578656375746560681b6044820152606401610344565b60005b8181101561061a576000600182815481106103b3576103b3610bca565b60009182526020918290206040805160c081018252600690930290910180546001600160a01b031683526001810154838501526002810154838301526003810180548351818702810187019094528084529394919360608601939283018282801561044757602002820191906000526020600020905b81546001600160a01b03168152600190910190602001808311610429575b5050509183525050600482015460208201526005909101546001600160a01b031660409091015260608101518051919250600091829061048957610489610bca565b602002602001015190506000826060015160018460600151516104ac9190610c26565b815181106104bc576104bc610bca565b602002602001015190506105087f00000000000000000000000000000000000000000000000000000000000000008460200151846001600160a01b03166106ce9092919063ffffffff16565b60007f00000000000000000000000000000000000000000000000000000000000000006001600160a01b0316631f263f5985602001518660400151876060015188608001516040518563ffffffff1660e01b815260040161056c9493929190610c3f565b6000604051808303816000875af115801561058b573d6000803e3d6000fd5b505050506040513d6000823e601f3d908101601f191682016040526105b39190810190610cbc565b9050600081600183516105c69190610c26565b815181106105d6576105d6610bca565b602002602001015190506106028560a0015182856001600160a01b031661077b9092919063ffffffff16565b5050505050808061061290610d7a565b915050610396565b5061062760016000610a7a565b6040518181527fe9cc9bbe7de1cbb097a6357ca3182909488efe8d793e25665befc064a02d10a79060200160405180910390a150565b6040516001600160a01b03808516602483015283166044820152606481018290526106c89085906323b872dd60e01b906084015b60408051601f198184030181529190526020810180516001600160e01b03166001600160e01b0319909316929092179091526107b0565b50505050565b604051636eb1769f60e11b81523060048201526001600160a01b0383811660248301526000919085169063dd62ed3e90604401602060405180830381865afa15801561071e573d6000803e3d6000fd5b505050506040513d601f19601f820116820180604052508101906107429190610d93565b90506106c88463095ea7b360e01b8561075b8686610dac565b6040516001600160a01b0390921660248301526044820152606401610691565b6040516001600160a01b0383166024820152604481018290526107ab90849063a9059cbb60e01b90606401610691565b505050565b6000610805826040518060400160405280602081526020017f5361666545524332303a206c6f772d6c6576656c2063616c6c206661696c6564815250856001600160a01b03166108859092919063ffffffff16565b90508051600014806108265750808060200190518101906108269190610dbf565b6107ab5760405162461bcd60e51b815260206004820152602a60248201527f5361666545524332303a204552433230206f7065726174696f6e20646964206e6044820152691bdd081cdd58d8d9595960b21b6064820152608401610344565b6060610894848460008561089c565b949350505050565b6060824710156108fd5760405162461bcd60e51b815260206004820152602660248201527f416464726573733a20696e73756666696369656e742062616c616e636520666f6044820152651c8818d85b1b60d21b6064820152608401610344565b600080866001600160a01b031685876040516109199190610e05565b60006040518083038185875af1925050503d8060008114610956576040519150601f19603f3d011682016040523d82523d6000602084013e61095b565b606091505b509150915061096c87838387610977565b979650505050505050565b606083156109e65782516000036109df576001600160a01b0385163b6109df5760405162461bcd60e51b815260206004820152601d60248201527f416464726573733a2063616c6c20746f206e6f6e2d636f6e74726163740000006044820152606401610344565b5081610894565b61089483838151156109fb5781518083602001fd5b8060405162461bcd60e51b81526004016103449190610e21565b828054828255906000526020600020908101928215610a6a579160200282015b82811115610a6a57825182546001600160a01b0319166001600160a01b03909116178255602090920191600190910190610a35565b50610a76929150610a9e565b5090565b5080546000825560060290600052602060002090810190610a9b9190610ab3565b50565b5b80821115610a765760008155600101610a9f565b80821115610a765780546001600160a01b031916815560006001820181905560028201819055610ae66003830182610b08565b50600060048201556005810180546001600160a01b0319169055600601610ab3565b5080546000825590600052602060002090810190610a9b9190610a9e565b600080600080600060808688031215610b3e57600080fd5b8535945060208601359350604086013567ffffffffffffffff80821115610b6457600080fd5b818801915088601f830112610b7857600080fd5b813581811115610b8757600080fd5b8960208260051b8501011115610b9c57600080fd5b96999598505060200195606001359392505050565b600060208284031215610bc357600080fd5b5035919050565b634e487b7160e01b600052603260045260246000fd5b600060208284031215610bf257600080fd5b81356001600160a01b0381168114610c0957600080fd5b9392505050565b634e487b7160e01b600052601160045260246000fd5b81810381811115610c3957610c39610c10565b92915050565b600060808201868352602086818501526080604085015281865180845260a086019150828801935060005b81811015610c8f5784516001600160a01b031683529383019391830191600101610c6a565b505080935050505082606083015295945050505050565b634e487b7160e01b600052604160045260246000fd5b60006020808385031215610ccf57600080fd5b825167ffffffffffffffff80821115610ce757600080fd5b818501915085601f830112610cfb57600080fd5b815181811115610d0d57610d0d610ca6565b8060051b604051601f19603f83011681018181108582111715610d3257610d32610ca6565b604052918252848201925083810185019188831115610d5057600080fd5b938501935b82851015610d6e57845184529385019392850192610d55565b98975050505050505050565b600060018201610d8c57610d8c610c10565b5060010190565b600060208284031215610da557600080fd5b5051919050565b80820180821115610c3957610c39610c10565b600060208284031215610dd157600080fd5b81518015158114610c0957600080fd5b60005b83811015610dfc578181015183820152602001610de4565b50506000910152565b60008251610e17818460208701610de1565b9190910192915050565b6020815260008251806020840152610e40816040850160208701610de1565b601f01601f1916919091016040019291505056fea26469706673582212200193896453c80cc48cca2ae5941ce06898005cd19e4e829581f87b76a6a2ba2564736f6c63430008110033",
  "linkReferences": {},
  "deployedLinkReferences": {}
}