{
  "_format": "hh-sol-artifact-1",
  "contractName": "SwapRouter",
  "sourceName": "contracts/SwapRouter.sol",
  "abi": [
    {
      "inputs": [
        {
          "internalType": "address",
          "name": "_ammRouter",
          "type": "address"
        }
      ],
      "stateMutability": "nonpayable",
      "type": "constructor"
    },
    {
      "anonymous": false,
      "inputs": [
        {
          "indexed": true,
          "internalType": "address",
          "name": "user",
          "type": "address"
        },
        {
          "indexed": false,
          "internalType": "uint256",
          "name": "amountIn",
          "type": "uint256"
        },
        {
          "indexed": false,
          "internalType": "uint256",
          "name": "amountOut",
          "type": "uint256"
        },
        {
          "indexed": false,
          "internalType": "address[]",
          "name": "path",
          "type": "address[]"
        }
      ],
      "name": "SwapExecuted",
      "type": "event"
    },
    {
      "inputs": [
        {
          "internalType": "address",
          "name": "token",
          "type": "address"
        },
        {
          "internalType": "address",
          "name": "owner_",
          "type": "address"
        }
      ],
      "name": "allowanceFor",
      "outputs": [
        {
          "internalType": "uint256",
          "name": "",
          "type": "uint256"
        }
      ],
      "stateMutability": "view",
      "type": "function"
    },
    {
      "inputs": [],
      "name": "ammRouter",
      "outputs": [
        {
          "internalType": "contract IAMMRouter",
          "name": "",
          "type": "address"
        }
      ],
      "stateMutability": "view",
      "type": "function"
    },
    {
      "inputs": [],
      "name": "owner",
      "outputs": [
        {
          "internalType": "address",
          "name": "",
          "type": "address"
        }
      ],
      "stateMutability": "view",
      "type": "function"
    },
    {
      "inputs": [
        {
          "internalType": "uint256",
          "name": "amountIn",
          "type": "uint256"
        },
        {
          "internalType": "uint256",
          "name": "amountMinOut",
          "type": "uint256"
        },
        {
          "internalType": "address[]",
          "name": "path",
          "type": "address[]"
        },
        {
          "internalType": "uint256",
          "name": "deadline",
          "type": "uint256"
        }
      ],
      "name": "swapExactTokensForTokens",
      "outputs": [
        {
          "internalType": "uint256[]",
          "name": "amounts",
          "type": "uint256[]"
        }
      ],
      "stateMutability": "nonpayable",
      "type": "function"
    }
  ],
  "bytecode": "0x60a060405234801561001057600080fd5b50604051610f89380380610f8983398101604081905261002f916100ac565b6001600160a01b0381166100895760405162461bcd60e51b815260206004820152601760248201527f53776170526f757465723a207a65726f20726f75746572000000000000000000604482015260640160405180910390fd5b6001600160a01b0316608052600080546001600160a01b031916331790556100dc565b6000602082840312156100be57600080fd5b81516001600160a01b03811681146100d557600080fd5b9392505050565b608051610e7e61010b6000396000818160aa015281816101e50152818161022401526103960152610e7e6000f3fe608060405234801561001057600080fd5b506004361061004c5760003560e01c80631f263f59146100515780638da5cb5b1461007a57806390b3c4e7146100a5578063d3449b8c146100cc575b600080fd5b61006461005f3660046109c1565b6100ed565b6040516100719190610a4c565b60405180910390f35b60005461008d906001600160a01b031681565b6040516001600160a01b039091168152602001610071565b61008d7f000000000000000000000000000000000000000000000000000000000000000081565b6100df6100da366004610aac565b61056e565b604051908152602001610071565b606060028310156101455760405162461bcd60e51b815260206004820152601860248201527f53776170526f757465723a20696e76616c69642070617468000000000000000060448201526064015b60405180910390fd5b428210156101955760405162461bcd60e51b815260206004820152601c60248201527f53776170526f757465723a206578706972656420646561646c696e6500000000604482015260640161013c565b6000848460008181106101aa576101aa610adf565b90506020020160208101906101bf9190610af5565b90506101d66001600160a01b03821633308a6105eb565b61020a6001600160a01b0382167f00000000000000000000000000000000000000000000000000000000000000008961065c565b60405163d06ca61f60e01b81526000906001600160a01b037f0000000000000000000000000000000000000000000000000000000000000000169063d06ca61f9061025d908b908a908a90600401610b57565b600060405180830381865afa15801561027a573d6000803e3d6000fd5b505050506040513d6000823e601f3d908101601f191682016040526102a29190810190610bbd565b905060008151116102f55760405162461bcd60e51b815260206004820152601860248201527f53776170526f757465723a206e6f206c69717569646974790000000000000000604482015260640161013c565b600081600183516103069190610c64565b8151811061031657610316610adf565b602002602001015190508781101561037f5760405162461bcd60e51b815260206004820152602660248201527f53776170526f757465723a20696e73756666696369656e74206f757470757420604482015265185b5bdd5b9d60d21b606482015260840161013c565b6040516338ed173960e01b81526001600160a01b037f000000000000000000000000000000000000000000000000000000000000000016906338ed1739906103d5908c908c908c908c9033908d90600401610c85565b6000604051808303816000875af192505050801561041557506040513d6000823e601f3d908101601f191682016040526104129190810190610bbd565b60015b6104a457610421610cc3565b806308c379a00361045a5750610435610cdf565b80610440575061045c565b8060405162461bcd60e51b815260040161013c9190610d8d565b505b60405162461bcd60e51b815260206004820152601b60248201527f53776170526f757465723a20726f757465722072657665727465640000000000604482015260640161013c565b935060008451116104ef5760405162461bcd60e51b815260206004820152601560248201527414ddd85c149bdd5d195c8e881b9bc81bdd5d1c1d5d605a1b604482015260640161013c565b600084600186516105009190610c64565b8151811061051057610510610adf565b60200260200101519050336001600160a01b03167fd39c42d913b2c4834acfbb85801f3a9dc0ebb78f5a6cf5ddf5c36f7f9183d1818b838b8b6040516105599493929190610dc0565b60405180910390a25050505095945050505050565b604051636eb1769f60e11b81526001600160a01b0382811660048301523060248301526000919084169063dd62ed3e90604401602060405180830381865afa1580156105be573d6000803e3d6000fd5b505050506040513d601f19601f820116820180604052508101906105e29190610dea565b90505b92915050565b6040516001600160a01b03808516602483015283166044820152606481018290526106569085906323b872dd60e01b906084015b60408051601f198184030181529190526020810180516001600160e01b03166001600160e01b031990931692909217909152610776565b50505050565b8015806106d65750604051636eb1769f60e11b81523060048201526001600160a01b03838116602483015284169063dd62ed3e90604401602060405180830381865afa1580156106b0573d6000803e3d6000fd5b505050506040513d601f19601f820116820180604052508101906106d49190610dea565b155b6107415760405162461bcd60e51b815260206004820152603660248201527f5361666545524332303a20617070726f76652066726f6d206e6f6e2d7a65726f60448201527520746f206e6f6e2d7a65726f20616c6c6f77616e636560501b606482015260840161013c565b6040516001600160a01b03831660248201526044810182905261077190849063095ea7b360e01b9060640161061f565b505050565b60006107cb826040518060400160405280602081526020017f5361666545524332303a206c6f772d6c6576656c2063616c6c206661696c6564815250856001600160a01b031661084b9092919063ffffffff16565b90508051600014806107ec5750808060200190518101906107ec9190610e03565b6107715760405162461bcd60e51b815260206004820152602a60248201527f5361666545524332303a204552433230206f7065726174696f6e20646964206e6044820152691bdd081cdd58d8d9595960b21b606482015260840161013c565b606061085a8484600085610862565b949350505050565b6060824710156108c35760405162461bcd60e51b815260206004820152602660248201527f416464726573733a20696e73756666696369656e742062616c616e636520666f6044820152651c8818d85b1b60d21b606482015260840161013c565b600080866001600160a01b031685876040516108df9190610e2c565b60006040518083038185875af1925050503d806000811461091c576040519150601f19603f3d011682016040523d82523d6000602084013e610921565b606091505b50915091506109328783838761093d565b979650505050505050565b606083156109ac5782516000036109a5576001600160a01b0385163b6109a55760405162461bcd60e51b815260206004820152601d60248201527f416464726573733a2063616c6c20746f206e6f6e2d636f6e7472616374000000604482015260640161013c565b508161085a565b61085a83838151156104405781518083602001fd5b6000806000806000608086880312156109d957600080fd5b8535945060208601359350604086013567ffffffffffffffff808211156109ff57600080fd5b818801915088601f830112610a1357600080fd5b813581811115610a2257600080fd5b8960208260051b8501011115610a3757600080fd5b96999598505060200195606001359392505050565b6020808252825182820181905260009190848201906040850190845b81811015610a8457835183529284019291840191600101610a68565b50909695505050505050565b80356001600160a01b0381168114610aa757600080fd5b919050565b60008060408385031215610abf57600080fd5b610ac883610a90565b9150610ad660208401610a90565b90509250929050565b634e487b7160e01b600052603260045260246000fd5b600060208284031215610b0757600080fd5b6105e282610a90565b8183526000602080850194508260005b85811015610b4c576001600160a01b03610b3983610a90565b1687529582019590820190600101610b20565b509495945050505050565b838152604060208201526000610b71604083018486610b10565b95945050505050565b634e487b7160e01b600052604160045260246000fd5b601f8201601f1916810167ffffffffffffffff81118282101715610bb657610bb6610b7a565b6040525050565b60006020808385031215610bd057600080fd5b825167ffffffffffffffff80821115610be857600080fd5b818501915085601f830112610bfc57600080fd5b815181811115610c0e57610c0e610b7a565b8060051b9150604051610c2385840182610b90565b81815291830184019184810188841115610c3c57600080fd5b938501935b83851015610c585784518152938501938501610c41565b50979650505050505050565b818103818111156105e557634e487b7160e01b600052601160045260246000fd5b86815285602082015260a060408201526000610ca560a083018688610b10565b6001600160a01b039490941660608301525060800152949350505050565b600060033d1115610cdc5760046000803e5060005160e01c5b90565b600060443d1015610ced5790565b6040516003193d81016004833e81513d67ffffffffffffffff8160248401118184111715610d1d57505050505090565b8285019150815181811115610d355750505050505090565b843d8701016020828501011115610d4f5750505050505090565b610d5e60208286010187610b90565b509095945050505050565b60005b83811015610d84578181015183820152602001610d6c565b50506000910152565b6020815260008251806020840152610dac816040850160208701610d69565b601f01601f19169190910160400192915050565b848152836020820152606060408201526000610de0606083018486610b10565b9695505050505050565b600060208284031215610dfc57600080fd5b5051919050565b600060208284031215610e1557600080fd5b81518015158114610e2557600080fd5b9392505050565b60008251610e3e818460208701610d69565b919091019291505056fea264697066735822122077ec79643572f2f73ac92f53b3083f0b847da1ab7ff4ec7a2b16e6cc6e44dd3d64736f6c63430008110033",
  "linkReferences": {},
  "deployedLinkReferences": {}
}