{
  "_format": "hh-sol-artifact-1",
  "contractName": "SwapRouter",
  "sourceName": "contracts/SwapRouter.sol",
  "abi": [
    {
      "inputs": [
        {
          "internalType": "address",
          "name": "_ammRouter",
          "type": "address"
        }
      ],
      "stateMutability": "nonpayable",
      "type": "constructor"
    },
    {
      "anonymous": false,
      "inputs": [
        {
          "indexed": false,
          "internalType": "address",
          "name": "user",
          "type": "address"
        },
        {
          "indexed": false,
          "internalType": "uint256",
          "name": "amountIn",
          "type": "uint256"
        },
        {
          "indexed": false,
          "internalType": "uint256",
          "name": "amountOut",
          "type": "uint256"
        },
        {
          "indexed": false,
          "internalType": "address[]",
          "name": "path",
          "type": "address[]"
        }
      ],
      "name": "SwapExecuted",
      "type": "event"
    },
    {
      "inputs": [],
      "name": "ammRouter",
      "outputs": [
        {
          "internalType": "contract IAMMRouter",
          "name": "",
          "type": "address"
        }
      ],
      "stateMutability": "view",
      "type": "function"
    },
    {
      "inputs": [],
      "name": "owner",
      "outputs": [
        {
          "internalType": "address",
          "name": "",
          "type": "address"
        }
      ],
      "stateMutability": "view",
      "type": "function"
    },
    {
      "inputs": [
        {
          "internalType": "uint256",
          "name": "amountIn",
          "type": "uint256"
        },
        {
          "internalType": "uint256",
          "name": "amountMinOut",
          "type": "uint256"
        },
        {
          "internalType": "address[]",
          "name": "path",
          "type": "address[]"
        },
        {
          "internalType": "uint256",
          "name": "deadline",
          "type": "uint256"
        }
      ],
      "name": "swapExactTokensForTokens",
      "outputs": [
        {
          "internalType": "uint256[]",
          "name": "amounts",
          "type": "uint256[]"
        }
      ],
      "stateMutability": "nonpayable",
      "type": "function"
    }
  ],
  "bytecode": "0x60a060405234801561001057600080fd5b506040516106e83803806106e883398101604081905261002f91610052565b6001600160a01b0316608052600080546001600160a01b03191633179055610082565b60006020828403121561006457600080fd5b81516001600160a01b038116811461007b57600080fd5b9392505050565b60805161063e6100aa60003960008181609f0152818161017f0152610213015261063e6000f3fe608060405234801561001057600080fd5b50600436106100415760003560e01c80631f263f59146100465780638da5cb5b1461006f57806390b3c4e71461009a575b600080fd5b61005961005436600461030a565b6100c1565b6040516100669190610395565b60405180910390f35b600054610082906001600160a01b031681565b6040516001600160a01b039091168152602001610066565b6100827f000000000000000000000000000000000000000000000000000000000000000081565b60606000848460008181106100d8576100d86103d9565b90506020020160208101906100ed919061040b565b6040516323b872dd60e01b8152336004820152306024820152604481018990529091506001600160a01b038216906323b872dd906064016020604051808303816000875af1158015610143573d6000803e3d6000fd5b505050506040513d601f19601f82011682018060405250810190610167919061042d565b5060405163095ea7b360e01b81526001600160a01b037f0000000000000000000000000000000000000000000000000000000000000000811660048301526024820189905282169063095ea7b3906044016020604051808303816000875af11580156101d7573d6000803e3d6000fd5b505050506040513d601f19601f820116820180604052508101906101fb919061042d565b506040516338ed173960e01b81526001600160a01b037f000000000000000000000000000000000000000000000000000000000000000016906338ed173990610252908a908a908a908a9033908b90600401610496565b6000604051808303816000875af1158015610271573d6000803e3d6000fd5b505050506040513d6000823e601f3d908101601f1916820160405261029991908101906104ea565b91507fd39c42d913b2c4834acfbb85801f3a9dc0ebb78f5a6cf5ddf5c36f7f9183d181338884600186516102cd91906105a8565b815181106102dd576102dd6103d9565b602002602001015188886040516102f89594939291906105cf565b60405180910390a15095945050505050565b60008060008060006080868803121561032257600080fd5b8535945060208601359350604086013567ffffffffffffffff8082111561034857600080fd5b818801915088601f83011261035c57600080fd5b81358181111561036b57600080fd5b8960208260051b850101111561038057600080fd5b96999598505060200195606001359392505050565b6020808252825182820181905260009190848201906040850190845b818110156103cd578351835292840192918401916001016103b1565b50909695505050505050565b634e487b7160e01b600052603260045260246000fd5b80356001600160a01b038116811461040657600080fd5b919050565b60006020828403121561041d57600080fd5b610426826103ef565b9392505050565b60006020828403121561043f57600080fd5b8151801515811461042657600080fd5b8183526000602080850194508260005b8581101561048b576001600160a01b03610478836103ef565b168752958201959082019060010161045f565b509495945050505050565b86815285602082015260a0604082015260006104b660a08301868861044f565b6001600160a01b039490941660608301525060800152949350505050565b634e487b7160e01b600052604160045260246000fd5b600060208083850312156104fd57600080fd5b825167ffffffffffffffff8082111561051557600080fd5b818501915085601f83011261052957600080fd5b81518181111561053b5761053b6104d4565b8060051b604051601f19603f83011681018181108582111715610560576105606104d4565b60405291825284820192508381018501918883111561057e57600080fd5b938501935b8285101561059c57845184529385019392850192610583565b98975050505050505050565b818103818111156105c957634e487b7160e01b600052601160045260246000fd5b92915050565b60018060a01b03861681528460208201528360408201526080606082015260006105fd60808301848661044f565b97965050505050505056fea2646970667358221220844b2faf5449741852eab2e44d14f04e35437c2929188764d2c7ed06ae26e98264736f6c63430008110033",
  "linkReferences": {},
  "deployedLinkReferences": {}
}